:03000000021518CE
:0C151800787FE4F6D8FD75812002155F95
:1008BD0053554E004D4F4E005455450057454E0073
:1008CD005448550046524900534154004A616E0048
:1008DD00466562004D617200417269004A7565009E
:1008ED002A00310032003300340035003600370065
:1008FD0038003900313000313100313200313300F0
:10090D0031340031350031360031370031380031A6
:10091D00390032300032310032320032330032349D
:10092D0000323500323600323700323800323900AD
:10093D003330002D002020202043616C656E6461F2
:10094D0072004B313A54204B323A4C204B343A45DD
:10095D00786900AE53574826BD26509544AAB96A0A
:10096D004DAD42AEB6AE4A4DBE4D52254652BA546D
:10097D004E6A436D375B4B9BC197544B4825BCA5C5
:10098D0050D445DAB8B64D574297B7974A4B3E4AC1
:10099D0051A546D4BAAD4EB64437382E4B96BF95B9
:1009AD00534A48A53B554F6A45ADB95D4D2D42950E
:1009BD00B6954A4ABDCA5155465ABBDA4E5B432BD2
:1009CD00B82B4C953F9552AA48D53CB54FB64557D7
:1009DD0039574D264293359549AABE6A516D46AE9B
:1009ED00BBAD4F4D4326B7254B52BF54526A476D91
:1009FD003C5B509B454BB94B4D25C2A554D449DAB0
:100A0D003DB651374697BB974F4B44A537A54AB2D4
:100A1D00BFAC53B64736BC2E5096454AB84A4CA586
:100A2D0041AAB66A49ADBD5D522D4795BA954E4A5C
:100A3D00435537D54A5ABFBA535B482BBC2B5093FD
:100A4D00454AB9AA4CD541DAB6B64A573D4E51265C
:100A5D0046933A534DAA43B5376D4BAEBFAD534D8B
:100A6D004825BC254F5244AA385A4C6D41ADB69B12
:100A7D004A4BBE4B51A54652BAD24EDA425B37377E
:100A8D004B97C197534B48A53CA54FB244B638AED2
:100A9D004C2E42973596494ABD4A51A545AABA6A88
:100AAD004E6D432EB72D4B95BF95534A47553BD5AC
:100ABD004F5A455D385B4C2B4293B6934929BDAADD
:100ACD0051D546DABAB64E57432738264A933E5289
:100ADD0052AA47B53B6D4FAE454EB94D4C1541929F
:100AED00B50000001F003B005A0078009700B500CC
:100AFD00D400F301110130014EFF08EDFF08EFFFA7
:100B0D0008F1FF08F3FF08F5FF08F7FF08F9FF08E4
:100B1D00FBFF08FDFF08FFFF0901FF0904FF09079F
:100B2D00FF090AFF090DFF0910FF0913FF0916FF41
:100B3D000919FF091CFF091FFF0922FF0925FF09DC
:100B4D0028FF092BFF092EFF0931FF0934FF093753
:100B5D00FF093AFF093DFF08EDFF08EFFF08F1FF20
:100B6D0008F3FF08F5FF08F7FF08F9FF08FBFF087A
:100B7D00FDFF08FFFF0901FF0904FF090700000041
:100B8D00000000000000000000004A616E203034BB
:0F0B9D0020323032310032323A33313A333500C0
:1018A2004D00D4001F1C1F1E1F1E1F1F1E1F1E1FA8
:0618B2004300E7202000C6
:0F18F600EF7F08C290A2E09291D290C313DFF46B
:0119050022BF
:0F1906007F08C290C313A29192E7D290DFF4FF43
:0119150022AF
:1018E300C292C290D2921218F6AF051218F6D29095
:0318F300C292227C
:10188B00C292C290D292EF4401FF1218F6121906BF
:06189B00D290C292C2913E
:0118A1002224
:0F1916003001047D808002E4FD7F8E1218E322F1
:0317C700FD7F8023
:1017CA00AE05AC07C201121916AF04EE75F00A8411
:1017DA00C454F0FDEE75F00A84E5F04DFD1218E3ED
:0517EA00D201021916F6
:08126400E0FBA3E0FAA3E0F9AE
:10126C007F8012188BEF5470C4540F75F00AA4FED3
:10127C00EF540F2E1206017F8212188BEF5470C49C
:10128C00540F75F00AA4FEEF540F2E9000011206B5
:10129C00137F8412188BEF5470C4540F75F00AA48A
:1012AC00FEEF540F2E9000021206137F8612188B3D
:1012BC00EF5470C4540F75F00AA4FEEF540F2E9027
:1012CC0000041206137F8A12188BEF5470C4540F4B
:1012DC0075F00AA4FEEF540F2E9000031206137F34
:1012EC008812188BEF5470C4540F75F00AA4FEEFDB
:1012FC00540F2E9000051206137F8C12188BEF548E
:10130C0070C4540F75F00AA4FEEF540F2E90000613
:03131C00020613B3
:10147900E0FBA3E0FAA3E0F912126C900021E0FB73
:06148900A3E0FAA3E0F964
:10148F009000061205D475F00A84243090000712DC
:10149F0006139000061205D475F00A84E5F0243087
:1014AF00900008120613900009742D120613900075
:1014BF00051205D475F00A84243090000A12061321
:1014CF009000051205D475F00A84E5F024309000E1
:1014DF000B12061390000C742D12061390000412B9
:1014EF0005D475F00A84243090000D120613900075
:1014FF00041205D475F00A84E5F0243090000E1222
:09150F00061390000FE40206131C
:1015A4009000021205D475F00A84243090001012C1
:1015B40006139000021205D475F00A84E5F0243075
:1015C400900011120613900012743A120613900040
:1015D400011205D475F00A84243090001312061306
:1015E4009000011205D475F00A84E5F024309000CF
:1015F40014120613900015743A1206131205BBFF59
:1016040075F00A842430900016120613EF75F00A60
:1016140084E5F02430900017120613900018E402B9
:021624000613AB
:10131F009000031205D4FF7E00EE60030213C9EFA5
:10132F0014B4070040030213C990134675F003A4C9
:10133F00C58325F0C5837302135B02136B02137B06
:10134F0002138B02139B0213AB0213BB9000287482
:10135F00FFF0A37408F0A374BDF0805E90002874B2
:10136F00FFF0A37408F0A374C1F0804E90002874AE
:10137F00FFF0A37408F0A374C5F0803E90002874AA
:10138F00FFF0A37408F0A374C9F0802E90002874A6
:10139F00FFF0A37408F0A374CDF0801E90002874A2
:1013AF00FFF0A37408F0A374D1F0800E900028749E
:1013BF00FFF0A37408F0A374D5F0900028E0FBA30E
:0513CF00E0FAA3E0F9C3
:0113D40022F6
:0D1925007F8012188BEF30E704E41217C723
:011932002292
:10183A007F8012188BAE07C201121916EE3000040F
:0C184A0044808002547FFD7F801218E370
:01185600226F
:041857007F057E008B
:10185B00EF1FAA0670011E4A600BE4FDEDC3946EE8
:05186B0050EE0D80F7B6
:011870002255
:1016DB0020B20E12185720B20830B2FD7E007F01E7
:1016EB002220B30E12185720B30830B3FD7E007FB3
:1016FB00022220B40E12185720B40830B4FD7E001D
:10170B007F032220B50E12185720B50830B5FD7E89
:08171B00007F0422E4FEFF221E
:0B0F8400900021EBF0A3EAF0A3E9F0DD
:100F8F00E4A3F0A3F0A3F0A304F0121481900021C6
:100F9F00E0FBA3E0FAA3E02407F9E43AFA9000316A
:100FAF00E4F0A304F07FC1121691900021E0FBA39F
:100FBF00E0FAA3E0F912131F9000E1EBF0A3EAF0BF
:100FCF00A3E9F0900031E4F0A304F07FCB02107E90
:100FDF00900024E07004A3E06404700302108412F4
:100FEF0016DB900024EEF0A3EFF0900021121264B4
:100FFF00900021E0FBA3E0FAA3E0F91215A4900002
:10100F0021E0FBA3E0FAA3E02410F9E43AFAE4901C
:10101F000031F0A3F07F84121691900024E0700449
:10102F00A3E0640170AA900026E0FEA3E06401FF34
:10103F00900026EEF0FEA3EFF04E900021701412F8
:10104F0014797B0A7A007D0A7C007F0A7E00120EDB
:10105F00588013121479900021E0FBA3E0FAA3E06B
:10106F002407F9E43AFAE4900031F0A3F07FC112BB
:05107F001691020FDFD5
:011084002249
:1017EF007BFF7A097942900031E4F0A304F07F8007
:1017FF001216917BFF7A09794F900031E4F0A30420
:06180F00F07FC0021691FB
:1013D500900024EBF0A3EAF0A3E9F0900024E0FBF1
:1013E500A3E0FAA3E0F8AC02AD037BFF7A0879D954
:1013F500120835EF70037F0122900024E0FBA3E083
:10140500FAA3E0F8AC02AD037BFF7A0879DD120898
:1014150035EF70037F0222900024E0FBA3E0FAA3DE
:10142500E0F8AC02AD037BFF7A0879E1120835EFED
:1014350070037F0222900024E0FBA3E0FAA3E0F80A
:10144500AC02AD037BFF7A0879E5120835EF70032E
:101455007F0222900024E0FBA3E0FAA3E0F8AC02AF
:10146500AD037BFF7A0879E9120835EF70037F0237
:04147500227F0022B0
:0717930090002CE0FD7F0A2D
:10179A00ED75F00A8490002DF0ED75F00A84A3E54A
:1017AA00F0F0EF2480FF12181E90002DE02430FF85
:0D17BA0012187190002EE02430FF0218710B
:100003009000C4EEF0A3EFF0A3ECF0A3EDF0A3EAAD
:04001300F0A3EBF07B
:100017009000C5E025E0FF9000C4E033FE74862F12
:10002700F58274FA3EF583E493FC740193FD7E0038
:1000370054607805CEC313CE13D8F964014E700B04
:10004700ED541F24FFFEE434FF80219000C5E02516
:10005700E0FF9000C4E033FE74862FF58274FA3E09
:10006700F583740193541F241EFEE4339000CAF0F5
:10007700A3CEF09000C6E0FAA3E0FB25E0FFEA3349
:10008700FE74EC2FF582740A3EF583E493FE740147
:1000970093FF9000C8E0FCA3E0FDEF2DFFEE3CCFFF
:1000A70024FFCF34FF9000CCF0A3EFF09000C4E022
:1000B700FEA3E0FF7C007D04120635ED4C7019D3DA
:1000C700EB9402EA64809480400E9000CDE004F047
:1000D70070069000CCE004F09000CAE0FEA3E0FFB9
:1000E700A3E0FCA3E0FDC39FEE6480F8EC64809876
:1000F700500302027D9000CAA3ED9FFFEC9EA3F080
:10010700A3EFF09000C6E4F0A304F09000D0E4F071
:10011700A304F0E4A3F0A3F09000D0A3E014F9E463
:10012700FFFE7D08FCA801120697A905AA06AB07E2
:100137009000C5E025E0FF9000C4E033FE74862FF1
:10014700F58274FA3EF583E493FE740193FFEB5F47
:10015700FFEA5EFEEE4F9000CE70030202550202E8
:100167005D9000CEE0FEA3E0FF9000CCE0FCA3E0B2
:10017700FDC39FEE6480F8EC64809850030202662A
:10018700ED9FFFEC9E9000CCF0A3EFF09000D1E044
:1001970004F070069000D0E004F09000C5E025E080
:1001A700FF9000C4E033FE74862FF58274FA3EF5A3
:1001B70083E4FCFDFFFE7814120697A804A905AA9C
:1001C70006AB079000C6E0FEA3E0FFEE3395E0FD27
:1001D700FCC312068170269000D2E0FEA3E0F4FF74
:1001E700EEF4FE9000D2F0A3EFF04E701E9000C721
:1001F700E004F070169000C6E004F0800E9000C78F
:10020700E004F070069000C6E004F09000D0A3E090
:1002170014F9E4FFFE7D08FCA801120697A905AAB8
:1002270006AB079000C5E025E0FF9000C4E033FE71
:1002370074862FF58274FA3EF583E493FE74019376
:10024700FFEB5FFFEA5EFEEE4F9000CE7008F0A373
:10025700741DF0020168E4F0A3741EF002016890B7
:1002670000CDE02401FE9000CCE034009000C8F0FF
:10027700A3CEF00204459000CCE0FEA3E0FFC390BC
:1002870000CBE09FF09000CAE09EF09000C5E0240C
:10029700FFF09000C4E034FFF09000C6E4F0A374D0
:1002A7000CF09000C5E025E0FF9000C4E033FE7439
:1002B700862FF58274FA3EF583E4FCFDFFFE781481
:1002C700120697EC4D4E4F9000D07007F0A3740CB8
:1002D700F08006E4F0A3740DF0E49000D2F0A3F0F0
:1002E7009000D0A3E014F9E4FFFE7D08FCA80112FA
:1002F7000697A905AA06AB079000C5E025E0FF9081
:1003070000C4E033FE74862FF58274FA3EF583E469
:1003170093FE740193FFEB5FFFEA5EFEEE4F9000E2
:10032700CE700302041302041B9000CEE0FEA3E08C
:10033700FF9000CAE0FCA3E0FDD39FEE6480F8ECD9
:100347006480985003020424ED9FFFEC9E9000CA3E
:10035700F0A3EFF09000D1E024FFF09000D0E0345C
:10036700FFF09000D2E07002A3E0700E9000C7E0AB
:1003770024FFF09000C6E034FFF09000C5E025E0D0
:10038700FF9000C4E033FE74862FF58274FA3EF5C1
:1003970083E4FCFDFFFE7814120697A804A905AABA
:1003A70006AB079000C6E0FEA3E0FFEE3395E0FD45
:1003B700FCC312068170129000D2E0FEA3E0F4FFA6
:1003C700EEF49000D2F0A3EFF09000D0A3E014F980
:1003D700E4FFFE7D08FCA801120697A905AA06AB53
:1003E700079000C5E025E0FF9000C4E033FE748667
:1003F7002FF58274FA3EF583E493FE740193FFEBC5
:100407005FFFEA5EFEEE4F9000CE7008F0A3741D0A
:10041700F0020330E4F0A3741EF00203309000CA28
:10042700E0FEA3E0FFC39000CFE09FFF9000CEE087
:100437009ECF2401CF34009000C8F0A3EFF09000C6
:10044700C8E0FEA3E0FF9000EAE04EFEA3E04FFF06
:100457009000EAEEF0FCA3EFF0FD9000C6E0FEA3EB
:10046700E07806C333CE33CED8F9FFEC4EFEED4F1E
:10047700FF9000EAEEF0A3EFF09000C5E025E0FF63
:100487009000C4E033FE74862FF58274FA3EF5833C
:10049700E4FCFDFFFE7814120697A804A905AA0636
:1004A700AB079000C6E0FEA3E0FFEE3395E0FDFC4E
:0D04B700C31206817004FE7F0122E4FEFFE7
:0104C4002215
:100E580090002DEEF0A3EFF0A3ECF0A3EDF0A3EAE1
:040E6800F0A3EBF018
:100E6C0078337C007D017BFF7A0B79067E007F5DF9
:100E7C0012059578907C007D017BFF7A0B79637E5F
:100E8C00007F2712059578B77C007D017BFF7A0BDC
:100E9C00798A7E007F0D12059590002DE0FEA3E06F
:100EAC00FFA3E0FCA3E0FDA3E0FAA3E0FB12000328
:100EBC00EF4E602D9000C774FFF0A37409F0A3747B
:100ECC0040F07B017A0079B71216269000EAE054C4
:100EDC0003FEA3E054C07806CEC313CE13D8F9801A
:100EEC00149000EAE05403FEA3E054C07806CEC38D
:100EFC0013CE13D8F990009075F0031206ABEE7573
:100F0C00F003A42583F583E0F9A3E0FAA3E09000B5
:100F1C00C7C9F0A3EAF0A3E9F07B017A0079B71214
:100F2C0016269000C774FFF0A37409F0A37440F068
:100F3C007B017A0079B71216269000EBE0543F90B3
:100F4C00003375F0031206ABE475F003A42583F5AA
:100F5C0083E0F9A3E0FAA3E09000C7C9F0A3EAF09C
:100F6C00A3E9F07B017A0079B7121626E49000C34E
:070F7C00F07B017A0079B758
:010F8300224B
:101723007BD07A07EF2BFBE43AFA7C007D04AF030E
:10173300FE120635ED4C700EFC7D64AF03AE021253
:101743000635ED4C700FAE02AF037C017D9012069F
:0A17530035ED4C70037F01227F008A
:01175D002269
:0B0BAC00900021EBF0A3EAF0A3E9F0B9
:100BB700E4A3F0A3F0A3F0A3F0A3F0A3F090002127
:100BC700121264900021121487900021E0FBA3E029
:100BD700FAA3E0F99000061205D490002AF09000DD
:100BE700051205D490002BF09000041205D4900054
:100BF7002CF0E92407F9E43AFA900031E4F0A30471
:100C0700F07F84020E4D900024E07004A3E064049A
:100C17007003020E531216DB900024EEF0A3EFF0E0
:100C270064014E705D900027E004F0700690002686
:100C3700E004F0900026E07004A3E06401700A7FEE
:100C47008A12181E7F0F12181E900026E07004A348
:100C5700E0640270057F8712181E900026E070047A
:100C6700A3E0640370057F8412181E900026E070CD
:100C770004A3E06404700B900026F0A3F07F0C122D
:100C8700181E900026E0FEA3E0FF4E7003020E1A26
:100C9700900024E07004A3E064026003020D57EFA4
:100CA70064014E706290002CE004F090002BE0B4D9
:100CB700020A90002AE0FF12172380027F007E00BD
:100CC700900028EEF0A3EFF090002BE0FD3395E0C5
:100CD700FC74D42DF58274003CF583E0FD3395E078
:100CE700FCED2401FDE43CCD2FFFEE3DFE90002CF2
:100CF700E0FD3395E0FCC3ED9FEC9E4002E4F0126B
:100D070017937F8A12181E900026E07004A3E064F0
:100D170002701F90002BE004F0E0C36480948D40C4
:100D270002E4F090002BE0FD7F0712179A7F8712ED
:100D3700181E900026E07004A3E064037012900070
:100D47002AE004F0E0FD7F0412179A7F8412181E30
:100D5700900024E07004A3E064036003020C0D908C
:100D67000026E07004A3E06401704B90002CE014AF
:100D7700F0E0D36480947F503590002BE0FFFD3383
:100D870095E0FC74D42DF58274003CF583E0FEEF0A
:100D9700B402047F0180027F00EE2F600A90002AD0
:100DA700E0FF12172380027F0090002CEFF012174C
:100DB700937F8A12181E900026E07004A3E0640255
:100DC700702090002BE014F0E0D36480947F5003F0
:100DD700740CF090002BE0FD7F0712179A7F8712A3
:100DE700181E900026E07004A3E064036003020C61
:100DF7000D90002AE014F0E0D36480947F5002E461
:100E0700F090002AE0FD7F0412179A7F8412181EC3
:100E1700020C0D900024E07004A3E0640360030259
:100E27000C0D90002AE0FF3395E0FEA3E0FD33951B
:100E3700E0FCA3E0FB3395E0FA120E58900031E492
:100E4700F0A304F07FC4121691020C0D7F0C021858
:010E57001E7C
:10108500900021EBF0A3EAF0A3E9F012192512175D
:101095005E7F0A7E001218B9D20012183A900BA092
:1010A500E49324D075F00AA4FFA3E49324D02F90F1
:1010B50000E5F0E4FCFDAF05EF900B9793FE74ECB3
:1010C5002FF582E43400F583EEF00DBD00010CED43
:1010D50064034C70E1E49000EFF07B017A0079EC59
:1010E5001213D59000E4EFF0900B9BE49324D07598
:1010F500F00AA4FFA3E49324D02F9000E6F0900B10
:10110500A3E49324D075F00AA4FFA3E49324D02F7D
:101115009000F0F0900BA6E49324D075F00AA4FF9C
:10112500A3E49324D02F9000F1F0900BA9E493242D
:10113500D075F00AA4FFA3E49324D02F9000F2F019
:101145007D027F8A1217CA9000E5E0FD7F8C121799
:10115500CA9000E4E0FD7F881217CA9000E6E0FD22
:101165007F861217CA9000F0E0FD7F841217CAA38C
:10117500E0FD7F821217CAA3E01217C7C20002184A
:011185003A2F
:10118600E4900019F0A3F0A3F0A3F0A3F0A3F0A35A
:10119600F0A37402F07B017A007900E4FDFC1210E2
:1011A6008590001BE07002A3E0705F7F0112181E9D
:1011B6001217EF90001FE0FFA3E090001DCFF0A3F1
:1011C600EFF0C390001EE0940190001DE0940040F3
:1011D600277F8F12181E90001DA3E02430FF1218DF
:1011E600717FE87E031218B990001EE024FFF0908C
:1011F600001DE034FFF080CA7F8F12181E7F201278
:10120600187190001BE4F0A304F01216DB9000198D
:10121600EEF0A3EFF0EE7089EF24FE601D14602A55
:10122600146031240360030211A77F0112181E7B8C
:10123600017A007900120F8480107F0112181E7B3C
:10124600017A007900120BAC8000E490001BF0A339
:0E125600F00211A7E490001BF0A3F00211A714
:1018B900EF1FAA0670011E4A600BE4FDEDC3946E8A
:0518C90050EE0D80F758
:0118CE0022F7
:1018CF00C296D295D29400000000E5A0339200C2D8
:0318DF0094A200D0
:0118E20022E3
:091815007F057E001218B97F382E
:10181E001218CF40FBC296C295C29400008FA00052
:0C182E00000000D29400000000C29422D0
:101871001218CF40FBD296C295C2948FA0000000EF
:0A18810000D29400000000C294227F
:10175E007F0F1218171218151218157F057E00121A
:10176E0018B97F0C12181E7F057E001218B97F065D
:10177E0012181E1F7E001218B97F0112181E7F0547
:05178E007E000218B905
:07193300EF4480FF02181EC3
:1016910090002EEBF0A3EAF0A3E9F012181E9000DF
:1016A1002EE0FBA3E0FAA3E0F91205BBD3940040BE
:1016B1002890002EA3E475F00112066BA9F0FA122E
:1016C10005BBFF121871900031E07002A3E060CEFB
:0A16D1007F647E001218B980C52264
:10152400021186E493A3F8E493A34003F68001F246
:1015340008DFF48029E493A3F85407240CC8C333C8
:10154400C4540F4420C8834004F456800146F6DF97
:10155400E4800B01020408102040809018A2E47E6D
:10156400019360BCA3FF543F30E509541FFEE4938C
:10157400A360010ECF54C025E060A840B8E493A353
:10158400FAE493A3F8E493A3C8C582C8CAC583CA7E
:10159400F0A3C8C582C8CAC583CADFE9DEE780BE36
:0118B800002F
:1004C500E709F608DFFA8046E709F208DFFA803E19
:1004D50088828C83E709F0A3DFFA8032E309F60806
:1004E500DFFA8078E309F208DFFA807088828C836E
:1004F500E309F0A3DFFA806489828A83E0A3F60822
:10050500DFFA805889828A83E0A3F208DFFA804CFB
:1005150080D280FA80C680D4806980F280338010D2
:1005250080A680EA809A80A880DA80E280CA80333B
:1005350089828A83ECFAE493A3C8C582C8CCC583B3
:10054500CCF0A3C8C582C8CCC583CCDFE9DEE78083
:100555000D89828A83E493A3F608DFF9ECFAA9F002
:10056500EDFB2289828A83ECFAE0A3C8C582C8CC58
:10057500C583CCF0A3C8C582C8CCC583CCDFEADE71
:10058500E880DB89828A83E493A3F208DFF980CCD3
:1005950088F0EF60010E4E60C388F0ED2402B404CC
:1005A5000050B9F582EB2402B4040050AF23234573
:0605B5008223900515737E
:1005BB00BB010689828A83E0225002E722BBFE023E
:0905CB00E32289828A83E4932271
:1005D400BB010CE58229F582E5833AF583E02250DC
:1005E40006E92582F8E622BBFE06E92582F8E22226
:0D05F400E58229F582E5833AF583E4932240
:10060100BB010689828A83F0225002F722BBFE01D8
:02061100F322D2
:10061300F8BB010DE58229F582E5833AF583E8F01D
:10062300225006E92582C8F622BBFE05E92582C8C9
:02063300F222B1
:10063500C2D5EC30E709B2D5E4C39DFDE49CFCEEE0
:1006450030E715B2D5E4C39FFFE49EFE120852C3FE
:10065500E49DFDE49CFC800312085230D507C3E4F9
:060665009FFFE49EFE224F
:10066B00A3F8E0C5F025F0F0E58215827002158342
:06067B00E0C838F0E8229F
:10068100EB9FF5F0EA9E42F0E99D42F0EC6480C8F0
:0606910064809845F02290
:10069700E86010ECA2E713FCED13FDEE13FEEF1379
:0406A700FFD8F02266
:0C06AB00A42582F582E5F03583F583225A
:101626009000C4EBF0A3EAF0A3E9F09000CAEBF057
:10163600A3EAF0A3E9F09000C4E0FBA3E475F0018F
:1016460012066BA9F0FA1205BB70EB9000C574FF89
:10165600F5F01208A79000C7E0FBA3E475F00112AD
:10166600066BA9F0FA1205BBFF9000C4E0FBA3E4E9
:1016760075F00112066BA9F0FAEF12060170D6900A
:0B16860000CAE0FBA3E0FAA3E0F92299
:1006B700E3F5F009E208B5F06D606B80F3E3F5F060
:1006C70009E608B5F060605E80F387F009E608B5D3
:1006D700F054605280F487F009E208B5F0486046AC
:1006E70080F488828C8387F009E0A3B5F038603600
:1006F70080F488828C8387F009E493A3B5F02760A0
:100707002580F388828C83E3F5F009E0A3B5F01622
:10071700601480F388828C83E3F5F009E493A3B532
:10072700F004600280F20207E2808580E7808E8015
:10073700D2803C8015806C807E809B80B5808B80CA
:10074700A1804F8070803A0207EE89828A83ECFA93
:10075700E493F5F0A3C8C582C8CCC583CCE493A3C2
:10076700C8C582C8CCC583CCB5F070606E80E189FE
:10077700828A83E493F5F0A3E208B5F05E605C80BB
:10078700F289828A83E0F5F0A3E608B5F04D604B65
:1007970080F389828A83E0F5F0A3E208B5F03C6034
:1007A7003A80F389828A83E493F5F0A3E608B5F0EB
:1007B7002A602880F2805389828A83ECFAE493F5D1
:1007C700F0A3C8C582C8CCC583CCE0A3C8C582C87E
:1007D700CCC583CCB5F004600280E27FFFB5F002A0
:1007E7000F2240027F012289828A83ECFAE0F5F02A
:1007F700A3C8C582C8CCC583CCE0A3C8C582C8CC72
:10080700C583CCB5F0D560D380E389828A83ECFABF
:10081700E0F5F0A3C8C582C8CCC583CCE493A3C8D0
:10082700C582C8CCC583CCB5F0B160AF80E288F093
:10083700ED2402B4040050A3F582EB2402B40400B3
:0B084700509923234582239007307353
:10085200BC000BBE0029EF8DF084FFADF022E4CC8A
:10086200F875F008EF2FFFEE33FEEC33FCEE9DEC53
:10087200984005FCEE9DFE0FD5F0E9E4CEFD22ED99
:10088200F8F5F0EE8420D21CFEADF075F008EF2FE3
:10089200FFED33FD4007985006D5F0F222C398FDD4
:0508A2000FD5F0EA2271
:1008A700C5F0F8A3E028F0C5F0F8E58215827002DC
:0608B7001583E038F02279
:00000001FF
