:030000000208F300
:0C08F300787FE4F6D8FD75814C02039874
:1006580053554E004D4F4E005455450057454E00DA
:100668005448550046524900534154004A616E00AF
:100678004665620038352D38352D38350020202064
:100688002043616C656E646172004B313A54204BB3
:10069800323A4C204B343A457869004A616E203032
:1006A8003420323032310030323A32373A33360081
:0F08C400EF7F08C290A2E09291D290C313DFF4AD
:0108D3002202
:0F08D4007F08C290C313A29192E7D290DFF4FF86
:0108E30022F2
:10088A00AE05C292C290D2921208C4AF061208C430
:05089A00D290C2922281
:10085D00C292C290D292EF4401FF1208C41208D482
:06086D00D290C292C2917C
:010873002262
:0F08E4003001047D808002E4FD7F8E12088A229D
:1007A000AC05AB07C2011208E4AF03EC75F00A8494
:1007B000C454F0FEEC75F00A84E5F04EFD12088A90
:0507C000D2010208E473
:1002E5007F8012085DEF5470C4540F75F00AA4FEA8
:1002F500EF540F2E1200497F8212085DEF5470C42F
:10030500540F75F00AA4FEEF540F2E900001120051
:100315005B7F8412085DEF5470C4540F75F00AA416
:10032500FEEF540F2E90000212005B7F8612085DCF
:10033500EF5470C4540F75F00AA4FEEF540F2E90BD
:10034500000412005B7F8A12085DEF5470C4540FDD
:1003550075F00AA4FEEF540F2E90000312005B7F88
:100365008812085DEF5470C4540F75F00AA4FEEFAF
:10037500540F2E90000512005B7F8C12085DEF5420
:1003850070C4540F75F00AA4FEEF540F2E900006AA
:0303950002005B08
:1004460090000612001C75F00A84243090000712F2
:10045600005B90000612001C75F00A84E5F024305B
:1004660090000812005B900009742D12005B90004A
:100476000512001C75F00A84243090000A12005BF5
:1004860090000512001C75F00A84E5F024309000F7
:100496000B12005B90000C742D12005B900004128E
:1004A600001C75F00A84243090000D12005B900049
:1004B6000412001C75F00A84E5F0243090000E1238
:0904C600005B90000FE402005BF2
:1005570090000212001C75F00A84243090001012DB
:10056700005B90000212001C75F00A84E5F024304D
:1005770090001112005B900012743A12005B900019
:100587000112001C75F00A84243090001312005BDE
:1005970090000112001C75F00A84E5F024309000E9
:1005A7001412005B900015743A12005B120003FFEF
:1005B70075F00A84243090001612005BEF75F00A7C
:1005C70084E5F0243090001712005B900018E402D5
:0205D700005BC7
:1004CF0090000312001CFF7E00EE7075EF14B4074E
:1004DF0000506E9004F075F003A4C58325F0C5831A
:1004EF007302050502051002051B020526020531E0
:1004FF0002053C0205477547FF7548067549588048
:10050F00407547FF75480675495C80357547FF751F
:10051F004806754960802A7547FF75480675496416
:10052F00801F7547FF75480675496880147547FF2A
:10053F0075480675496C80097547FF7548067549FA
:07054F0070AB47AA48A9495F
:010556002282
:1008B3007F8012085DEF30E707E4FD7F801207A019
:0108C3002212
:10080C007F8012085DAC07C2011208E4EC300004D2
:0C081C0044808002547FFD7F8012088A17
:0108280022AD
:040829007F057E00C9
:10082D00EF1FAA0670011E4A600BE4FDEDC3946E26
:05083D0050EE0D80F7F4
:010842002293
:1006B80020B20E12082920B20830B2FD7E007F0158
:1006C8002220B30E12082920B30830B3FD7E007F24
:1006D800022220B40E12082920B40830B4FD7E008E
:1006E8007F032220B50E12082920B50830B5FD7EFB
:0806F800007F0422E4FEFF2252
:0605D9008B428A438944B5
:1005DF00E4F545F5461202E5AB42AA43A9441204DD
:1005EF0046AB42E5442407F9E43543FA754B0075F1
:1005FF004C017FC1120700AB42AA43A9441204CF9A
:10060F008B088A09890A754B00754C017FCB8033A3
:10061F00E5466404454560301206B88E458F46ABFB
:10062F0042AA43A9441202E5AB42AA43A9441205C8
:10063F0057AB42E5442410F9E43543FAE4F54BF5A2
:08064F004C7F8412070080C8F3
:010657002280
:1007EA007BFF7A067985754B00754C017F8012076D
:1007FA00007BFF7A067992754B00754C017FC00227
:02080A000700E5
:10076D008B458A468947A801AC02AD037BFF7A060B
:10077D0079741201FBEF60037F0122A847AC46ADEF
:10078D00457BFF7A0679781201FBEF60037F022229
:03079D007F0022B8
:0708FF007BFF7A06797C22E1
:01090D0022C7
:100218008B428A4389441208B31207387F0A7E004A
:100228001208749006ACE49324D075F00AA4FFA3D6
:10023800E49324D02FF50CE4FCFDED9006A393FF86
:10024800740E2DF8A6070DBD00010CED64034C706B
:10025800E9E4F511FB7A00790E12076D8F0B900611
:10026800A7E49324D0FF75F00AA4FEA3E49324D056
:100278002EF50D9006A3E49324D075F00AA4FEA3EE
:10028800E49324D02EF5129006A6E49324D075F0BA
:100298000AA42FF5139006A9E49324D075F00AA4B4
:1002A800FFA3E49324D02FF514D20012080CAD0C50
:1002B8007F8C1207A0AD0B7F881207A0AD0D7F863B
:1002C8001207A0AD127F841207A0AD137F82120718
:0D02D800A0AD147F801207A0C20002080C28
:10039800E4F53AF53BF53CF53DF53EF53FF540759E
:1003A8004102FB7A007921FDFC120218E53D453C2B
:1003B80070477F011207CE1207EA85403E85413F0C
:1003C800C3E53F9401E53E9400401E7F8F1207CE9F
:1003D800E53F2430FF1208437FE87E03120874E5E6
:1003E8003F153F70DB153E80D77F8F1207CE7F20E9
:1003F800120843753C00753D011206B88E3A8F3BD2
:10040800E53A70A8E53B24FE601A146021146026C2
:10041800240370987F011207CE7B007A007921129D
:1004280005D9800A7F011207CE12090D8000E4F574
:0E0438003CF53D0203B4E4F53CF53D0203B48F
:10087400EF1FAA0670011E4A600BE4FDEDC3946EDF
:0508840050EE0D80F7AD
:01088900224C
:10089F00C296D295D29400000000E5A0339200C218
:0308AF0094A20010
:0108B2002223
:0907C5007F057E001208747F38E4
:1007CE0012089F40FBC296C295C29400008FA000F3
:0C07DE00000000D29400000000C2942231
:1008430012089F40FBD296C295C2948FA00000006D
:0A08530000D29400000000C29422BD
:100738007F0F1207C71207C51207C57F057E001273
:1007480008747F0C1207CE7F057E001208747F069E
:100758001207CE1F7E001208747F011207CE7F0594
:050768007E0002087490
:07090600EF4480FF0207CE61
:100700008B488A49894A1207CEAB48AA49A94A129E
:100710000003D394004020054AE54A7002054914BD
:10072000F9120003FF120843E54C454B60DB7F6480
:080730007E0012087480D22241
:10000300BB010689828A83E0225002E722BBFE02FB
:09001300E32289828A83E493222E
:10001C00BB010CE58229F582E5833AF583E0225099
:10002C0006E92582F8E622BBFE06E92582F8E222E3
:0D003C00E58229F582E5833AF583E49322FD
:10004900BB010689828A83F0225002F722BBFE0196
:02005900F32290
:10005B00F8BB010DE58229F582E5833AF583E8F0DB
:10006B00225006E92582C8F622BBFE05E92582C887
:02007B00F2226F
:10007D00E3F5F009E208B5F06D606B80F3E3F5F0A0
:10008D0009E608B5F060605E80F387F009E608B513
:10009D00F054605280F487F009E208B5F0486046EC
:1000AD0080F488828C8387F009E0A3B5F038603640
:1000BD0080F488828C8387F009E493A3B5F02760E0
:1000CD002580F388828C83E3F5F009E0A3B5F01663
:1000DD00601480F388828C83E3F5F009E493A3B573
:1000ED00F004600280F20201A8808580E7808E8096
:1000FD00D2803C8015806C807E809B80B5808B800B
:10010D00A1804F8070803A0201B489828A83ECFA13
:10011D00E493F5F0A3C8C582C8CCC583CCE493A302
:10012D00C8C582C8CCC583CCB5F070606E80E1893E
:10013D00828A83E493F5F0A3E208B5F05E605C80FB
:10014D00F289828A83E0F5F0A3E608B5F04D604BA5
:10015D0080F389828A83E0F5F0A3E208B5F03C6074
:10016D003A80F389828A83E493F5F0A3E608B5F02B
:10017D002A602880F2805389828A83ECFAE493F511
:10018D00F0A3C8C582C8CCC583CCE0A3C8C582C8BE
:10019D00CCC583CCB5F004600280E27FFFB5F002E0
:1001AD000F2240027F012289828A83ECFAE0F5F06A
:1001BD00A3C8C582C8CCC583CCE0A3C8C582C8CCB2
:1001CD00C583CCB5F0D560D380E389828A83ECFA00
:1001DD00E0F5F0A3C8C582C8CCC583CCE493A3C811
:1001ED00C582C8CCC583CCB5F0B160AF80E288F0D4
:1001FD00ED2402B4040050A3F582EB2402B40400F4
:0B020D00509923234582239000F673D4
:00000001FF
